S016000044617368626F6172642D323031352E7372656391
S214400000582D012055054000D9054000D90540002F
S214400010D9054000D9054000D90540000000000041
S214400020000000000000000000000000896A400058
S214400030D905400000000000456C4000A56C40001B
S214400040D9054000D9054000D9054000D9054000F3
S214400050D9054000D9054000D9054000D9054000E3
S2144000600000000079A64000C9A6400019A740003D
S21440007069A74000B9A74000D9054000D90540000F
S214400080D9054000D9054000D9054000092A40005E
S214400090D9054000D9054000D9054000D9054000A3
S2144000A0D9054000D9054000D9054000D905400093
S2144000B0D9054000D9054000D9054000D905400083
S2144000C0D9054000D9054000D9054000E147400029
S2144000D0D90540000903400085044000D90540008A
S2144000E000000000000000000000000000000000CB
S2144000F0D9054000D905400008B50548054B1B1AF0
S214400100062B00D808BD044B002BFBD09847F9E7D8
S2144001103CAF41003FAF41000000000008B5074833
S214400120074B1B1A9B1003EBD373591000D108BD25
S214400130044A002AFBD09047F9E700BF3CAF410095
S2144001403CAF41000000000010B5064C237843B990
S214400150FFF7D2FF044B13B10448AFF300800123EE
S214400160237010BD30060020000000003CAF410068
S21440017008B5084B1BB108480849AFF3008008484B
S214400180036813B1074B03B19847BDE80840FFF733
S214400190C5BF00BF000000003CAF41003406002051
S2144001A03CAF41000000000080B483B000AF03467F
S2144001B0FB71094B97F907205209F97901F01F01A5
S2144001C0012000FA01F1603243F822100C37BD4698
S2144001D05DF8047B704700BF00E100E080B58EB05C
S2144001E000AF3E494FF000024FF00003C1E9002344
S2144001F03A4B00221A72394B0022DA60374B002203
S2144002001A61FA2018210022354B98470246354B92
S2144002101A60142018210022314B98470246324B70
S2144002201A601420012100222D4B984702462F4B7E
S2144002301A60142001210022294B984702462C4B75
S2144002401A602C482C494FF47A722C4B98472C480D
S21440025029494FF47A72294B984707F11C0300222C
S2144002601A60043300221A60043300221A600433F2
S21440027000221A60043300221A60043300221A60F7
S214400280043300221A6004333B4600221A600433CB
S21440029000221A60043300221A60043300221A60D7
S2144002A0043300221A60043300221A60043300220A
S2144002B01A60043307F11C023B460E4811461A46A4
S2144002C0104B984707F11C023B460D4811461A460C
S2144002D00C4B98473837BD4680BD00BF9023012061
S2144002E0E1734000540600205806002050060020C7
S2144002F04C06002000000140000E2707B99C400035
S214400300004001405D9D400090B58DB002AF252075
S2144003104F4B98474F4B1B6903F0FE03002B00F0F2
S214400320948007F118034B4819464B4B98474B4B64
S2144003301C4607F118030FCB84E80F00484B9A6819
S214400340464B1A6107F1080300221A600433002264
S2144003501A60043300221A60043300221A60043301
S21440036001233B7201233B7402237B6100237B60A5
S2144003703C4B1A683B1D104638491A4600233A4CF7
S214400380A0470346012B18D0384B1B685A1C374BE6
S2144003901A60364B1B68BB6000BF6B4607F1100205
S2144003A092E8030083E8030007F108030CCB2948D2
S2144003B02F4988470346002BEFD17B6AB3F50C7F65
S2144003C02DD0B3F50C7F08D80B2B28D00B2B31D370
S2144003D0A3F50473012B2DD821E040F267629342C7
S2144003E007D0B3F5CF6F0FD040F22D62934216D0B0
S2144003F020E0204B1A6807F11803104619460022E1
S2144004000023194CA04715E01B4B1A6807F1180348
S2144004101046194600220023134CA0470AE0174B0B
S2144004201A6807F1180310461946002200230E4C9E
S214400430A04700BF7B68002B07D0114B4FF080527F
S2144004401A60BFF34F8FBFF36F8F2C37BD4690BDFA
S214400450A901400000000140719F40009023012008
S21440046030180E4054060020717740005C0600208D
S214400470C99D40004C06002050060020580600202B
S21440048004ED00E090B58BB000AF2620284B98478F
S214400490284B1B6903F0FE03002B46D007F11803D8
S2144004A024481946244B9847244B1C4607F118030A
S2144004B00FCB84E80F00224B9A68204B1A6107F155
S2144004C0080300221A60043300221A600433002214
S2144004D01A60043300221A60043302233B7201235D
S2144004E03B744FF4CC637B6100237B60154B1A68EA
S2144004F03B1D104611491A460023134CA04703469D
S214400500012B07D0114B1B685A1C104B1A600F4B1F
S2144005101B68BB607B68002B07D00D4B4FF08052AA
S2144005201A60BFF34F8FBFF36F8F2C37BD4690BD19
S214400530A901400000400140719F400090230120E7
S21440054030180E4054060020717740005C060020AC
S21440055004ED00E080B582B000AF164B7B60164BD2
S2144005603B607A683B689A420CD007E03B681A1DAD
S2144005703A607A68111D796012681A603A680F4BC3
S2144005809A42F3D30E4B3B6004E03B681A1D3A6038
S21440059000221A603A680B4B9A42F6D30A4B7B60AD
S2144005A00A4B7A6822F07F029A60094B9847094BBB
S2144005B09847FEE73CAF4100000000203006002090
S2144005C030060020542901200000400000ED00E0E5
S2144005D019764100B965400080B400AFFEE700BF21
S2144005E080B400AF01231846BD465DF8047B7047D3
S2144005F080B584B000AF0346FB71FB79002B0AD16F
S214400600FA79084913469B001344DB000B441B68E9
S2144006109847034600E00123FB73FB7B18461037E0
S214400620BD4680BDFC77410080B584B000AF034630
S2144006303960FB71FB79002B0CD1FA7909491346D6
S2144006409B001344DB000B4404331B683868984710
S214400650034600E00123FB73FB7B18461037BD467C
S21440066080BD00BFFC77410080B584B000AF024635
S2144006700B46FA71BB71FB79002B2AD1FA791849DF
S21440068013469B001344DB000B4408331B68002BC7
S21440069012D0FA79124913469B001344DB000B44F0
S2144006A008331B68BA79104698470346002B0CBFA0
S2144006B000230123DBB20DE0BB79002B0CBF0023E7
S2144006C00123DBB283F00103DBB203F00103DBB2AC
S2144006D000E00023FB73FB7B18461037BD4680BD09
S2144006E0FC77410080B584B000AF0346FB71FB79D0
S2144006F0002B0CD1FA790A4913469B001344DB00C1
S2144007000B440C331B6898470346002B01D001234B
S21440071000E00023FB73FB7B18461037BD4680BDC8
S214400720FC77410080B584B000AF0346FB71FB798F
S214400730002B0CD1FA790A4913469B001344DB0080
S2144007400B4410331B6898470346002B01D0012307
S21440075000E00023FB73FB7B18461037BD4680BD88
S214400760FC77410080B483B000AF0346FB71FB7951
S214400770002B01D1044B00E0002318460C37BD4641
S2144007805DF8047B704700BFE477410080B400AF5B
S214400790094BDB6C084BDB6B03F48013002B03D058
S2144007A0064B01221A7002E0054B01221A70BD4624
S2144007B05DF8047B704700BF000E0E4048230120C2
S2144007C04923012098B500AF354B98473548092155
S2144007D0354B9847334809210122344B98473448D3
S2144007E0032140F28D220123324CA047324800219B
S2144007F040F28D2201232F4CA0472F481B2140F268
S2144008008D2201232B4CA0472B481A2140F28D22E3
S2144008100123284CA04728480D2140F28D22012371
S214400820244CA04724481F2140F28D220123214C0E
S214400830A0471C4800211C4B98471A48002100221C
S2144008401A4B98471748002101221C4B98471C48D2
S2144008500D2101221B4B984719480D211A4B9847EA
S21440086017480D2140F6B8320123124CA0471748CE
S2144008701121154B984715481221134B984713489A
S2144008801421114B9847114813210F4B98470F4896
S214400890132101220E4B0F4CA0470C4BDB6C98BD2E
S2144008A015A0400000140E4061A04000C9A04000C2
S2144008B000160E401109400000120E4045A24000AE
S2144008C000100E40D908400095A04000000E0E4093
S2144008D08D07400045A4400080B582B000AF7860E8
S2144008E013460A46FA70BB70FB7878681946064B82
S2144008F09847FA78BB78786811461A46034B98476B
S2144009000837BD4680BD00BF95A0400045A24000C8
S21440091080B582B000AF7860F9703A80BB70FB78E3
S214400920786819460D4B9847FA78BB787868114630
S2144009301A460B4B98477B680A4AC3F8E4207B6804
S214400940D3F88C203B881A437B68C3F88C207B689E
S214400950054AC3F8E4200837BD4680BD95A0400050
S2144009609DA24000004F4950014F495080B483B08B
S21440097000AF7860034B7A681A600C37BD465DF866
S214400980047B70470400002090B589B000AF034652
S214400990FB71FB797B610023BB614FF08073FB6189
S2144009A007F1140207F10803104603210022024C07
S2144009B0A0472437BD4690BD9529400090B58BB0E2
S2144009C000AF78600B46FB707B681B0CDBB243F0D5
S2144009D08003BB617B681B0ADBB2FB617B68DBB2D2
S2144009E03B62FB7843F080737B6207F1180207F1A5
S2144009F00803104604210022024CA0472C37BD466F
S214400A0090BD00BF9529400090B58DB000AF78608E
S214400A1039607B681B0CDBB243F08003FB617B686C
S214400A201B0ADBB23B627B68DBB27B623B68DBB2B5
S214400A30BB623B681B0ADBB243F08073FB6207F184
S214400A401C0207F10803104605210022024CA0476D
S214400A503437BD4690BD00BF9529400090B591B053
S214400A6000AF786039607B681B0CDBB243F08003D4
S214400A707B627B681B0ADBB2BB627B68DBB2FB62D5
S214400A803B68DBB23B633B681B0ADBB27B633B687D
S214400A901B0CDBB2BB633B681B0E43F08073FB63EF
S214400AA007F1240207F10803104607210022024CF2
S214400AB0A0474437BD4690BD952940002DE9F04FEC
S214400AC08BB000AFF860B9600023FB84B868654B14
S214400AD09847034687F82430002387F8253007E0F8
S214400AE0FB8C0133FB8497F82530013387F825309B
S214400AF097F8252097F824309A42F1D907E0FB8CE6
S214400B000133FB8497F82530013387F8253097F872
S214400B10253003F00303DBB2002BF0D1FB8CD91C4D
S214400B206B461E464B1E3B620B461A464FF0000372
S214400B3058017860786840EAD260786050010B4689
S214400B401A464FF000034FEA431B4BEAD26B4FEA7C
S214400B50421A0B469B0003330733DB08DB00ADEB42
S214400B60030D6B4603339B089B00FB61FB8CD91C33
S214400B704B1EBB610B461A464FF000034FEA431923
S214400B8049EAD2694FEA42180B461A464FF000032C
S214400B905D0145EAD26554010B469B00033307339B
S214400BA0DB08DB00ADEB030D6B4603339B089B0075
S214400BB07B61FB681B0CDBB243F08002FB691A606A
S214400BC0FB681B0ADAB2FB695A60FB68DAB2FB695B
S214400BD09A60002387F8253010E097F82530DA1C15
S214400BE097F82530B9680B441B781946FB6943F8DB
S214400BF0221097F82530013387F8253097F82520BE
S214400C0097F824309A42E8D90BE097F82530DA1C5A
S214400C10FB69002143F8221097F82530013387F806
S214400C20253097F8253003F00303DBB2002BECD1D8
S214400C30FB8C9A1CFB694FF0807143F82210F969CF
S214400C40FB8CDBB20333DAB27B69084611460022DE
S214400C50054CA04797F82530B54618462C37BD4674
S214400C60BDE8F08FF17641009529400080B483B00E
S214400C7000AF0346FB71FB799AB2074B1B881344BF
S214400C809BB2C3F30B039AB2034B1A800C37BD4694
S214400C905DF8047B704700BF6006002080B582B0D8
S214400CA000AF7860064B1B8803F5841318467968B6
S214400CB0044B98470420044B98470837BD4680BDF0
S214400CC0600600205D0A40006D0C400080B500AF15
S214400CD000202F4B984744202D4B984762202C4BA2
S214400CE098472C484FF4F0712B4B98472B484FF4BD
S214400CF08871294B98472A4840F21321264B98473B
S214400D0028480021244B984727482921224B9847BA
S214400D1026482B21204B984725484FF490711E4B70
S214400D209847244800211C4B984723480A211A4BD1
S214400D30984722480C21184B984721480021214BC0
S214400D409847214800211F4B9847204801211D4BBA
S214400D5098474FF480104FF000711D4B98471D4840
S214400D601D491B4B98471D480021194B98471C4866
S214400D700221144B98471B488021124B98471A482B
S214400D808021104B9847194805210E4B984780BD47
S214400D908909400030241000090A4000442410000D
S214400DA02824100034241000382410002C2410006E
S214400DB03C241000482410004C241000402410000E
S214400DC064241000BD094000602410006824100010
S214400DD05D0A4000040010000700002608001000CE
S214400DE0502410008C241000902410006C24100016
S214400DF080B487B000AF144B5B687B61124B9B6836
S214400E003B61114BDB68FB600F4BDB69BB600E4BF5
S214400E105B6D7B600C4B80221A600B4B7A695A6084
S214400E20094B3A699A60084BFA68DA60064BBA682A
S214400E30DA61054B7A685A65034B05221A601C37FF
S214400E40BD465DF8047B70470000084080B485B01E
S214400E5000AF786039607B68002B1BD07B685B00F6
S214400E603A68B2FBF3F3FB607B685A003B68B3FB1F
S214400E70F2F102FB01F29B1ABB60BB68002B02D06A
S214400E80FB680133FB60FB68002B05D0FB68013B29
S214400E90FB6001E00023FB60084B084A526822F0E2
S214400EA0FF025A60054B054A5168FA68D2B20A43B7
S214400EB05A601437BD465DF8047B70470000084012
S214400EC080B582B000AF0E4B7B600E4B1B6C3B6018
S214400ED07B685A1E7A60002B03D10B4B9847002341
S214400EE00AE03B6803F02003002BEED03B6803F09B
S214400EF01003002BE9D1012318460837BD4680BDB4
S214400F0040420F0000000840F10D400080B586B01A
S214400F1000AFF860B9607A60BB6803F03F03FA68D8
S214400F201343FB60BB6803F48073002B1BD0FB6845
S214400F3043F48053FB60BB6803F40063002B04D08B
S214400F40FB6843F08003FB600DE0BB6803F400538E
S214400F50002B04D0FB6843F0C003FB6003E0FB6853
S214400F6043F04003FB60BB6803F48043002B03D090
S214400F70FB6843F40063FB601C4B7A681A611B4BAA
S214400F80FA685A61194B1B6C7B61BB6803F480534B
S214400F90002B08D07B6903F41F03002B0CD0144BA6
S214400FA0984700231DE07B6903F41B03002B03D006
S214400FB00F4B9847002314E07B6903F00103002B96
S214400FC0E0D0BB6803F40053002B09D0094B984788
S214400FD0034683F00103DBB2002B01D0002300E080
S214400FE0012318461837BD4680BD00BF00000840A4
S214400FF0F10D4000C10E400080B500AF1020094BF7
S2144010009847094B72229A60074B7222DA61064B68
S21440101011225A65044B4FF4E0625A60024B052297
S2144010201A6080BD3DAC40000000084080B483B0EC
S21440103000AF0346FB71FB79002B01D1012300E092
S214401040002318460C37BD465DF8047B704700BF4A
S21440105080B400AF01231846BD465DF8047B704758
S21440106080B584B000AF39600146F971BA717B71C2
S2144010700023FB600023BB607B79002B06D0174B18
S214401080164A526D42F480725A6505E0134B134A75
S214401090526D22F480725A6538681149114B984750
S2144010A0FB79002B02D10023FB6000BFBB79042BE9
S2144010B006D0082B07D0012B08D10023BB6005E0E3
S2144010C08023BB6002E0C023BB6000BF034BF968CF
S2144010D0BA680A43DA601037BD4680BD0000084053
S2144010E0000E27074D0E400080B483B000AF034685
S2144010F0FB710C37BD465DF8047B704780B400AF8B
S2144011000B4B0B4A526822F460525A60084B00223E
S2144011101A61074B4FF410625A6100BF044B1B6CB8
S21440112003F00103002BF9D0BD465DF8047B704701
S2144011300000084080B582B000AF786039600C4B44
S2144011400B4A526822F460525A60094B084A526869
S21440115022F400425A60064B00229A6100207968C9
S2144011603A68044B9847034618460837BD4680BD44
S214401170000008400D0F400080B400AF034B1B6AD0
S2144011801846BD465DF8047B704700BF0000084027
S21440119080B485B000AF78600023FB7324E0164B24
S2144011A01B6ABB60BB681B0EDAB27B681A707B6832
S2144011B001337B60BB681B0CDAB27B681A707B68B5
S2144011C001337B60BB681B0ADAB27B681A707B68A7
S2144011D001337B60BB68DAB27B681A707B68013388
S2144011E07B60FB7B0133FB73FB7B032BD7D9143728
S2144011F0BD465DF8047B70470000084080B586B069
S21440120000AFF860B960FA80BB8097F82030002BBA
S21440121006D03D4B3C4A526842F400425A6005E0D4
S214401220394B394A526822F400425A60364B364AA5
S214401230526842F4C0525A60FB8803F00303002B06
S21440124006D0314B304A526842F400525A6005E0AC
S2144012502D4B2D4A526822F400525A60FB6803F424
S2144012600043002B03D04FF480337B6102E04FF401
S214401270A0237B61FB6803F48033002B09D07B6995
S21440128043F400137B61204BFA88C2F308029A614C
S21440129027E01D4BFA881104BA880A439A61FB6816
S2144012A003F40033002B04D07B6943F420137B61A6
S2144012B017E0FB6803F48023002B04D07B6943F4DB
S2144012C080137B610DE0FB6803F40023002B08D1FC
S2144012D0FB6803F48013002B03D07B6943F40023A0
S2144012E07B610A4B00221A60094BFA881A80094B28
S2144012F0BA881A807869F968BA68074B98470346EF
S21440130018461837BD4680BD0000084064060020D9
S214401310680600206A0600200D0F400080B582B0A7
S21440132000AF786039604FF4003079683A68034B14
S2144013309847034618460837BD4680BD0D0F400007
S21440134080B485B000AF78600B467B807B88214AAE
S214401350128802FB03F3FB607B6803F00303002B59
S21440136005D11C4B1B8803F00303002B06D01A4BF9
S214401370194A526842F400525A6005E0164B164A23
S214401380526822F400525A60134B7A68C3F8002120
S214401390114A114B5B6803F40053002B02D1FB68E3
S2144013A09B0800E0FB68C2F804310B4B0022C3F8F0
S2144013B01421094B0122C3F82021084B1A68FB6808
S2144013C01A44064B1A60012318461437BD465DF88A
S2144013D0047B704768060020000008406406002032
S2144013E080B582B000AF1C4B1B6C7B607A681B4B91
S2144013F01340002B08D0184B40F20222C3F820219D
S214401400174B9847002322E07B6803F48043002B69
S214401410E9D0144B1B88144A128802FB03F2134B84
S2144014201B689A4201D9012311E00B4B1B6C7B6071
S2144014307A680A4B1340002B03D0094B9847002389
S21440144005E07B6803F00063002BEED001231846CE
S2144014500837BD4680BD00BF00000840000060C0A1
S214401460F10D4000680600206A0600206406002051
S21440147080B485B000AF78600B467B807B88224A7C
S214401480128802FB03F3FB607B6803F00303002B28
S21440149005D11D4B1B8803F00303002B06D01B4BC6
S2144014A01A4A526842F400525A6005E0174B174AEF
S2144014B0526822F400525A60144B7A68C3F80821E6
S2144014C0124A124B5B6803F40053002B02D1FB68B0
S2144014D09B0800E0FB68C2F80C310C4B0022C3F8B6
S2144014E01C210A4B4FF48072C3F82021084B1A681F
S2144014F0FB681A44064B1A60012318461437BD464B
S2144015005DF8047B704700BF680600200000084076
S2144015106406002080B582B000AF1C4B1B6C7B601D
S2144015207A681B4B1340002B08D01A4B9847174B32
S21440153040F20222C3F82021002322E07B6803F415
S2144015400043002BE9D0144B1B88144A128802FB38
S21440155003F2134B1B689A4201D9012311E00B4B4F
S2144015601B6C7B607A680A4B1340002B03D0094BF8
S2144015709847002305E07B6803F02003002BEED05D
S214401580012318460837BD4680BD00BF000008400E
S214401590000060C0F10D4000680600206A0600208A
S2144015A06406002080B487B000AFF86079813A8145
S2144015B0FB717A893B89D31A0733002B00DA07334D
S2144015C0DB10013BFA6813441B781A463B8903F04C
S2144015D0070342FA03F37B613B8903F00702FB797A
S2144015E01344082B16DD7A893B89D31A0733002B20
S2144015F000DA0733DB10023BFA6813441B781A46BE
S2144016003B8903F00703C3F1080302FA03F37A6940
S21440161013437B613B8903F00702FB791344102B8D
S21440162016DD7A893B89D31A0733002B00DA073355
S214401630DB10033BFA6813441B781A463B8903F0D9
S2144016400703C3F1100302FA03F37A6913437B617D
S2144016503B8903F00702FB791344102B16DD7A8989
S2144016603B89D31A0733002B00DA0733DB10033BE2
S214401670FA6813441B781A463B8903F00703C3F104
S214401680100302FA03F37A6913437B61FB79012264
S21440169002FA03F3013B7A6913407B617B69184683
S2144016A01C37BD465DF8047B704700BF80B500AF71
S2144016B00C4B1B681B891B0441F6093019460A4B24
S2144016C09847034683F00103DBB2002B01D000238A
S2144016D006E0044B1B680E331846044B984701231C
S2144016E0184680BD900600203511400091114000FC
S2144016F090B583B000AF0023FB71764B1B68012288
S214401700DA72744B1B6800221A73724B1B680022F5
S2144017101A81714B98474FF4804000216F4B984791
S214401720034683F00103DBB2002B01D00023CCE05C
S214401730FB1D18466A4B9847034683F00103DBB20D
S214401740002B01D00023C0E0624B1B68DB7A03F01D
S2144017500103002B0DD0FB791846624B9847034691
S21440176083F00103DBB2002B03D05A4B1B680222E6
S214401770DA72584B1B68DB7A03F00103002B0CD05F
S21440178045F602300021554B9847034683F0010347
S214401790DBB2002B01D0002397E045F20310002176
S2144017A04E4B9847034683F00103DBB2002B01D033
S2144017B000238AE0474B1C684B4B984703461B0C5C
S2144017C09BB22381434B1B68DB7A03F00103002B5B
S2144017D00BD0464B9847034683F00103DBB2002B01
S2144017E001D0002371E0424B98473A4B1B681B8957
S2144017F01B0443F207101946384B9847034683F0BC
S2144018000103DBB2002B01D000235EE0314B1B68A6
S214401810DB7A03F00103002B09D0364B984703468A
S21440182083F00103DBB2002B01D000234DE0324BA6
S2144018301B781846314B98470346032B12D9254B45
S2144018401B68DB7A03F00103002B09D02C4B98472A
S214401850034683F00103DBB2002B01D0002334E0C3
S214401860284B9847284B98470346002B17D0194BD0
S2144018701B68DB7A03F00103002B0ED0154B1B6868
S2144018801B7B102B09D9214B9847034683F0010355
S214401890DBB2002B01D0002317E01A4B98470D4BC4
S2144018A01B68DB7A03F00103002B0DD041F21010C9
S2144018B04FF40071094B9847034683F00103DBB2AF
S2144018C0002B01D0002300E0012318460C37BD460C
S2144018D090BD00BF90060020FD104000351140002E
S2144018E0F91940001123400079114000AD16400020
S2144018F05D1A40000D1C40008C0600202D10400054
S214401900B51B4000C11D4000511040001119400059
S21440191090B593B002AF012300932E482E49402243
S21440192001232E4CA047034683F00103DBB2002B75
S21440193001D0002349E03B4618460121284B9847F2
S214401940034683F00103DBB2002B01D000233CE0CA
S214401950244B9847034683F00103DBB2002B01D0AB
S214401960002332E0204B9847034603F08003002BC9
S21440197001D0002329E03B4618464FF400714FF44F
S214401980BC720423194CA04703460F2B01D10123F8
S2144019901BE03B4618464FF400714FF48872102304
S2144019A0124CA0470346002B01D000230DE0104BFD
S2144019B09847104B1B6801229A770E4B1B680D4ABE
S2144019C01268126852001A60012318464437BD4612
S2144019D090BD00BF0611080001FFFF80FD114000CA
S2144019E041134000E113400079114000A515400026
S2144019F0FD1040009006002080B584B000AF7860AF
S214401A007B6800221A7045F208504FF4D571114B8E
S214401A109847034683F00103DBB2002B01D0012335
S214401A2014E00D4B9847F860FB68B3F1FF3F01D1D7
S214401A3001230BE0FB68C3F30B03B3F5D57F01D05E
S214401A40002303E07B6801221A70012318461037F2
S214401A50BD4680BD3511400079114000B0B584B018
S214401A6000AF364B1B680E33184680216022082391
S214401A70334CA047F860FB6803F00702314B53F83D
S214401A802230BB60FB68DB0803F00F022E4B53F896
S214401A9022307B60294B1B68BA68796801FB02F2EA
S214401AA04FF47A7101FB02F21A60244B1B680E3326
S214401AB0184680217E220223214CA0470346002B55
S214401AC00FD01E4B1C681D4B1B680E3318468021DA
S214401AD0302216231A4DA847034601335B02636043
S214401AE029E0164B1B680E33184680213E220C23F5
S214401AF0134CA04703465C1C104B1B680E3318461D
S214401B0080212F2203230E4DA8470346023304FAB2
S214401B1003F33B60094B1C68084B1B680E331846A2
S214401B20802150220423064DA84703463A6802FA0D
S214401B3003F39B0A63601037BD46B0BD9006002095
S214401B40A5154000247841004078410080B582B019
S214401B5000AF144B7B60144B1B681B891B0441F27F
S214401B600D101946114B9847034683F00103DBB22C
S214401B70002B01D0002311E00D4B9847034603F499
S214401B808073002B02D000BF012307E07B685A1EFB
S214401B907A60002B01D1002300E0DCE718460837C6
S214401BA0BD4680BD400D0300900600203511400024
S214401BB07911400080B500AF124B1B681B891B048F
S214401BC041F237101946104B9847034683F00103FD
S214401BD0DBB2002B01D0002311E041F206100221B7
S214401BE0094B9847034683F00103DBB2002B01D034
S214401BF0002304E0034B1B6804225A730123184653
S214401C0080BD00BF900600203511400090B585B0DD
S214401C1002AF374B1B681B891B0441F2371019462D
S214401C20344B9847034683F00103DBB2002B01D0C8
S214401C30002359E0012300932F4800210822012366
S214401C402E4CA047034683F00103DBB2002B01D0A5
S214401C50002349E03B4618460121294B9847034656
S214401C6083F00103DBB2002B01D000233CE0254B80
S214401C709847034683F00103DBB2002B01D00023D4
S214401C8032E03B4618464021382204231E4CA047EB
S214401C900346012B09D0012B02D3022B0AD01DE0AC
S214401CA0134B1B6810221A731DE0114B1B681A2237
S214401CB01A7318E03B46184640212F220123124C47
S214401CC0A0470346012B04D1094B1B6830221A73E8
S214401CD009E0074B1B6820221A7304E0044B1B687C
S214401CE010221A7300BF012318460C37BD4690BD1C
S214401CF0900600203511400033110800FD114000C9
S214401D0041134000E1134000A515400080B582B065
S214401D1000AF0346FB71FB79002B01D0042340E063
S214401D20FB79224A5B01134408339B78042B07D087
S214401D30FB791E4A5B01134408339B78032B1AD168
S214401D40FB791A4A5B011344083302229A70FB79E6
S214401D50164A5B011344164A1A60FB79134A5B0124
S214401D601344083301225A71FB79104A5B0113442D
S214401D70183300229A710F4BFA791A70FB795A0180
S214401D800A4B1A440C4B1A600C4B9847FB79074A8F
S214401D905B01134408339B78022B14BF00230123B6
S214401DA0DBB218460837BD4680BD00BF6C06002033
S214401DB0801A06008C06002090060020C11D4000B8
S214401DC098B500AF094B1878094B1B681968084B43
S214401DD01B685A7B064B1B689B7F002B0CBF00235F
S214401DE00123DBB2034CA04798BD00BF8C06002001
S214401DF0900600206110400080B500AF044B1B7871
S214401E00002B04D1024B1B781846024B984780BDE6
S214401E108C060020E910400080B582B000AF1B4819
S214401E201A2103221A4B984718481B210322184BA5
S214401E30984716481C210322154B984713481D21E6
S214401E400322134B984711481E210322104B9847F4
S214401E500E481F2103220E4B98470023FB7109E0D2
S214401E60FB790C4A5B011344083304229A70FB79D1
S214401E700133FB71FB79002BF2D0074BFF221A701F
S214401E80064B98470837BD4680BD00BF000E0E4043
S214401E9011A140006C0600208C060020F90F40007F
S214401EA080B584B000AF0346FB71FB791846114BF2
S214401EB098470346FB73FB7B012B03D00E4B98479A
S214401EC0FB7B13E00D4B98470346002B07D00C4B8B
S214401ED01B6800229A72084B9847012306E0084B7D
S214401EE01B6803229A72044B984703231846103700
S214401EF0BD4680BD0D1D4000F91D4000F116400056
S214401F009006002080B582B000AF0346FB71FB7997
S214401F101846084B98470346002B01D0002304E0A0
S214401F20054B9847054B1B68DB7A18460837BD4675
S214401F3080BD00BF0D1D4000F91D400090060020EA
S214401F4080B582B000AF0346FB71FB791846084B5C
S214401F5098470346002B01D0002304E0054B9847E2
S214401F60054B1B685B6818460837BD4680BD00BFFA
S214401F700D1D4000F91D40009006002080B483B03F
S214401F8000AF0346FB71002318460C37BD465DF88C
S214401F90047B704790B589B002AF3960134602465D
S214401FA0FA71BB80FB791846294B98470346FB736A
S214401FB0FB7B002B01D0FB7B46E0264B9847034635
S214401FC083F00103DBB2002B03D0234B9847052355
S214401FD03AE0BB88012B02D9204B7B6101E0204BC5
S214401FE07B61204B1B68DB7A03F00803002B02D092
S214401FF03B683B6102E03B685B023B61BB88012279
S2144020000092786939694FF40072174CA04703462E
S21440201083F00103DBB2002B03D00F4B9847052318
S21440202012E0124B9847B860BA68114B1340002B29
S21440203003D0094B9847052306E00E4BBA881A8012
S2144020400D4BBA881A80002318461C37BD4690BDF3
S2144020500D1D40004D1B4000F91D400012111000A0
S2144020601111080090060020FD1140007911400033
S214402070000058E4960600209406002080B582B002
S21440208000AF78600B467B807B88786819460C4B9F
S2144020909847034683F00103DBB2002B04D0094B7C
S2144020A000221A80052307E0064B1A887B88D31A3D
S2144020B09AB2044B1A80002318460837BD4680BDA6
S2144020C0411340009606002080B582B000AF03461C
S2144020D0FB711B4B9847034683F00103DBB2002B92
S2144020E001D0052327E0FB79002B03D0154B0022B7
S2144020F01A8005E0134B1B88002B01D000231AE002
S214402100114B1B88012B03D1104B9847002312E03C
S21440211043F20C1000210E4B9847034683F0010310
S214402120DBB2002B04D043F20C100021084B98473A
S214402130064B9847002318460837BD4680BD00BF6B
S214402140E11340009606002094060020F91D40004A
S2144021501D13400090B589B002AF39601346024661
S214402160FA71BB80FB791846294B98470346FB73A8
S214402170FB7B002B01D0FB7B45E0FB791846254BCB
S21440218098470346002B03D0234B984707233AE053
S214402190BB88012B02D9214B7B6101E0204B7B6140
S2144021A0204B1B68DB7A03F00803002B02D03B6809
S2144021B03B6102E03B685B023B61BB8801220092C8
S2144021C0786939694FF40072174CA047034683F08C
S2144021D00103DBB2002B03D00F4B9847052312E0D8
S2144021E0124B9847B860BA68114B1340002B03D087
S2144021F0094B9847052306E00E4BBA881A800E4BCB
S214402200BA881A80002318461C37BD4690BD00BFCA
S2144022100D1D40007D1F4000F91D40001991100023
S2144022201891080090060020FD11400079114000EA
S214402230000058E4960600209406002080B582B040
S21440224000AF78600B467B807B88786819460C4BDD
S2144022509847034683F00103DBB2002B04D0094BBA
S21440226000221A80052307E0064B1A887B88D31A7B
S2144022709AB2044B1A80002318460837BD4680BDE4
S214402280711440009606002080B582B000AF034629
S214402290FB711A4B9847034683F00103DBB2002BD1
S2144022A001D0052326E0FB79002B03D0144B0022F7
S2144022B01A8005E0124B1B88002B01D0002319E042
S2144022C0104B1B88012B03D10F4B9847002311E07E
S2144022D043F20C1000210D4B9847034683F0010350
S2144022E0DBB2002B03D0084B9847052302E0064B91
S2144022F09847002318460837BD4680BD1515400050
S2144023009606002094060020F91D40001D1340004C
S21440231080B586B000AF0346FB7140F634033B61A0
S21440232041F237100021224B9847034683F00103C1
S214402330DBB2002B01D0002335E04FF4FC137B6169
S214402340FB79002B03D07B6943F080437B6144F2EA
S21440235029507969164B9847034683F00103DBB250
S214402360002B01D000231EE0124B9847F860FB6814
S214402370002B0FDAFB6803F08043002B09D00E4B8E
S2144023801B680D4A1268D27A42F00802D2B2DA725C
S21440239008E007E03B695A1E3A61002B01D1002352
S2144023A001E0BDE7012318461837BD4680BD00BF93
S2144023B035114000791140009006002080B582B06B
S2144023C000AF0346FB71FB791846154B984703460A
S2144023D0012B17D0022B17D0002B1BD1FB79114AAB
S2144023E0D35C002B01D0022315E0FB7918460E4B38
S2144023F09847034603F00303002B01D000230AE06E
S214402400022308E0032306E0FB79064A0021D15464
S214402410022300E0012318460837BD4680BD00BFB2
S214402420A11E40009C060020051F400080B500AF5E
S2144024300020024B98470346184680BDBD23400007
S21440244080B582B000AF03463960FB71FB79184611
S214402450074B984703465B005A1E3B681A60FB7959
S2144024601846044B9847034618460837BD4680BD75
S214402470411F4000BD23400080B582B000AF786069
S21440248000207968034B9847034618460837BD46F0
S21440249080BD00BF4124400080B582B000AF0346F7
S2144024A0FB71FB791846034B984703461846083796
S2144024B0BD4680BD7D1F400080B500AF0020024B6A
S2144024C098470346184680BD9924400080B483B0A0
S2144024D000AF0346FB71012318460C37BD465DF836
S2144024E0047B704780B500AF0020024B98470346F8
S2144024F0184680BDCD24400090B585B000AF396009
S21440250013460246FA71BB800123FB73FA79BB88F7
S214402510104639681A46324B98470346002B05D07A
S214402520022B01D1022357E0012355E000BFBB88B0
S2144025300133BB814AE0BB89002B11D0BB8903F035
S21440254001039BB2002B01D1264B00E0264B1846D8
S2144025500121264B98470346002B01D001233BE040
S214402560FB7B83F00103DBB2002B20D0BB8903F05A
S21440257001039BB2002B01D11B4B00E0194B0120FD
S21440258019464FF400720023194CA047034683F0C7
S2144025900103DBB2002B0CD0FB7B83F00103DBB2E4
S2144025A0002B02D00120134B9847012314E0002350
S2144025B0FB73BB89002B07D000200E4B9847034681
S2144025C0002B01D0012307E00023FB73BB895A1E72
S2144025D0BA81002BAFD1002318461437BD4690BDB4
S2144025E0951F4000A8250120A82301207D204000FB
S2144025F065464000C920400080B582B000AF786094
S2144026000B467B807B88002079681A46034B9847A8
S214402610034618460837BD4680BD00BFF924400033
S21440262090B585B000AF396013460246FA71BB805C
S2144026300123FB73FA79BB88104639681A46334B38
S21440264098470346002B05D0022B01D1022358E0C1
S214402650012356E000BFBB880133BB814BE0FB7BC8
S21440266083F00103DBB2002B11D0BB8903F00103DA
S2144026709BB2002B01D1264B00E0264B1846012189
S214402680254B98470346002B01D0012339E0BB89F0
S214402690002B20D0BB8903F001039BB2002B01D155
S2144026A01C4B00E01A4B002019464FF400720023E2
S2144026B01A4CA047034683F00103DBB2002B0AD036
S2144026C0FB7B83F00103DBB2002B02D00120144BCE
S2144026D09847012315E0FB7B83F00103DBB2002B18
S2144026E007D000200E4B98470346002B03D001230B
S2144026F007E00023FB73BB895A1EBA81002BAED17C
S214402700002318461437BD4690BD00BF55214000F3
S214402710A8250120A82301203D2240006546400010
S2144027208922400080B582B000AF78600B467B803F
S2144027307B88002079681A46034B9847034618461C
S2144027400837BD4680BD00BF2126400080B584B016
S21440275000AF0346B9607A60FB73FB7B1846B968E6
S2144027600122114B98470346002B05D0022B01D17E
S214402770022314E0012312E000BF786801210B4BCE
S21440278098470346002B01D0012308E00020084B61
S21440279098470346002B01D0012300E0002318464B
S2144027A01037BD4680BD00BF951F40007D204000CD
S2144027B0C920400080B582B000AF78603960002004
S2144027C079683A68034B9847034618460837BD462B
S2144027D080BD00BF4D27400080B584B000AFB960D3
S2144027E07A600246FA73BB81FA7BBB891046B968A9
S2144027F01A46114B98470346002B05D0022B01D1B1
S214402800022315E0012313E000BFBB897868194610
S2144028100A4B98470346002B01D0012308E00020CE
S214402820074B98470346002B01D0012300E00023C6
S21440283018461037BD4680BD552140003D22400019
S2144028408922400090B585B000AFF860B960134665
S214402850FB80FB880020F968BA68034CA047034613
S21440286018461437BD4690BDD927400080B483B083
S21440287000AF0346FB71084B97F907205209F979D8
S21440288001F01F01012000FA01F143F822100C3735
S214402890BD465DF8047B704700E100E080B483B03D
S2144028A000AF0346FB71094B97F907205209F979A7
S2144028B001F01F01012000FA01F1203243F82210F6
S2144028C00C37BD465DF8047B704700BF00E100E072
S2144028D080B483B000AF0346FB71094B97F90720DD
S2144028E05209F97901F01F01012000FA01F1603226
S2144028F043F822100C37BD465DF8047B704700BF96
S21440290000E100E080B483B000AF03463960FB715D
S21440291097F90730002B0BDA0D49FB7903F00F03CC
S214402920043B3A68D2B21201D2B20B441A7609E09E
S214402930084997F907303A68D2B21201D2B20B442E
S21440294083F800230C37BD465DF8047B704700BF14
S21440295000ED00E000E100E080B485B000AFF86034
S2144029600B467A60FB720A4BFA68C3F80821084B9C
S214402970FA7AC3F80C21064B7A68C3F80021044B58
S214402980FA7AC3F804211437BD465DF8047B7047D5
S2144029900080084090B585B000AFF8607A603B6034
S2144029A00B46FB72124B1B68184600214FF0FF3255
S2144029B00023104CA047104B7A681A60FB7AF868E0
S2144029C019463A680D4B98470D4B1B681846002130
S2144029D04FF0FF320023074CA047054B1B681846B4
S2144029E0002100220023074CA0471437BD4690BD67
S2144029F0AC270120A1794000A006002059294000BC
S214402A00A82701204975400080B582B000AF00235A
S214402A107B60114B1B69114B1B68002B02D00F4B80
S214402A201B6898470E4B1B68002B06D00C4B1A6849
S214402A303B1D104619460B4B98477B68002B07D02A
S214402A40094B4FF080521A60BFF34F8FBFF36F8F22
S214402A500837BD4680BD00BF00800840A006002065
S214402A60A8270120A978400004ED00E090B484B087
S214402A7000AFF860B9601346FB71FA68BB68B2FBFA
S214402A80F3F3FF2B05D8FA68BB68B2FBF3F3002BD1
S214402A9000D1FEE7094BFA790849F8790C3051F82D
S214402AA02000FC68B968B4FBF1F1090201430C321E
S214402AB043F822101037BD4690BC7047008008404F
S214402AC080B582B000AF3B4683E8030036480E210F
S214402AD00122364B984734480D210122334B984704
S214402AE031480C210122314B9847BB78013B032BE0
S214402AF022D801A252F823F0092B4000152B4000A3
S214402B00212B40002D2B4000274809210222274B2D
S214402B10984712E024481F210122244B98470CE096
S214402B2023480E210122214B984706E021480421E4
S214402B3002221E4B984700E000BFFB78022B0AD0CB
S214402B40032B0ED0012B00D011E017480A21022299
S214402B50164B98470BE014481E210222134B984709
S214402B6005E0134802210222104B984700BF3B79EC
S214402B70022B0AD0032B0ED0012B00D011E00A48BE
S214402B8003210222094B98470BE007480521022201
S214402B90064B984705E0044816210222034B984707
S214402BA000BF0837BD4680BD000E0E4011A1400054
S214402BB000100E4000120E4080B582B000AF3B467B
S214402BC083E803001320264B98471320254B98474D
S214402BD03B7813201946244B98471320234B98479D
S214402BE03B4693E80300224B98471320214B9847D7
S214402BF0214B214A126842F001021A601E4B1E4ABF
S214402C00526842F001025A601B4B1B4A526822F03F
S214402C1004025A60184B184A526842F002025A6040
S214402C20154B154A526822F010025A60124B124A4F
S214402C30526942F480725A610F4B0F4AD2F82021F3
S214402C4042F48072C3F820210B4B0B4AD2F8202165
S214402C5042F00102C3F820210837BD4680BD00BFC0
S214402C609D284000D1284000052940006D2840009E
S214402C70C12A40003DAC40000080084084B080B58A
S214402C8000AF07F1080C8CE80F00F9687A693B7AC8
S214402C90084611461A46514B98473B7C032B6FD843
S214402CA001A252F823F000BFB92C4000EB2C4000A4
S214402CB01D2D40004F2D4000494B3A7A4849387AFE
S214402CC00C3051F8201021F001010C3243F822104C
S214402CD0434B3A7A4249387A0C3051F8201041F04A
S214402CE002010C3243F822104AE03D4B3A7A3C4906
S214402CF0387A0C3051F8201021F001010C3243F89C
S214402D002210374B3A7A3649387A0C3051F8201030
S214402D1021F002010C3243F8221031E0304B3A7A6F
S214402D202F49387A0C3051F8201041F001010C320E
S214402D3043F822102A4B3A7A2949387A0C3051F80F
S214402D40201041F002010C3243F8221018E0244BC8
S214402D503A7A2349387A0C3051F8201041F0010174
S214402D600C3243F822101E4B3A7A1D49387A0C3002
S214402D7051F8201021F002010C3243F8221000BF17
S214402D80174B3A7A1649387A0C3051F82000397E7B
S214402D900839090101430C3243F82210104B3A7AA5
S214402DA00F49387A0C3051F82000797E09040143E7
S214402DB00C3243F822100A4B3A7A0949387A0C30DA
S214402DC051F82000B97E090601430C3243F8221020
S214402DD0BD46BDE8804004B0704700BF6D2A400045
S214402DE00080084080B400AF024B1846BD465DF8F0
S214402DF0047B7047C078410080B400AF064B1B6828
S214402E001A68054B1B681B685B889BB213441846C0
S214402E10BD465DF8047B7047B006002080B584B0A0
S214402E2000AF78600B46FB70114B9847F8607B68A4
S214402E301B787A6813447B6010E07B685B78042BD1
S214402E4000D10FE07B685B78FA789A4201D17B68C4
S214402E5009E07B681B787A6813447B60FA687B6875
S214402E609A42EAD8002318461037BD4680BD00BFB8
S214402E70F92D400080B584B000AF02460B46FA718B
S214402E80BB711E4B1B78002B01D1002332E01C4B3C
S214402E901B681B681B79FA799A4201D3002329E004
S214402EA0174B1B681A68174B1A60174B9847F86001
S214402EB01AE0144B1B685B78042B0DD1114B1B6832
S214402EC09B78FA799A4207D10E4B1B68DB78BA7921
S214402ED09A4201D101230DE00A4B1A68094B1B6840
S214402EE01B781A44074B1A60064B1B68FA689A42CE
S214402EF0DFD8002318461037BD4680BDAC060020FC
S214402F00B0060020B4060020F92D400080B584B0FD
S214402F1000AF0346FB71FB79184600211E4B9847CD
S214402F20034683F00103DBB2002B01D000232FE0E1
S214402F301A4B1B685A68FB799B0013441B68BB609E
S214402F40BB68DB6898470346FA7910461946124B29
S214402F509847034683F00103DBB2002B01D00023E1
S214402F6016E00F4B1B68FB60F86805210D4B984731
S214402F70F860FB68002B05D100BFBB685B689847CC
S214402F80012305E0FB689B781846074B9847EBE71C
S214402F9018461037BD4680BD752E4000B00600204E
S214402FA0B40600201D2E4000C14B400080B584B0C2
S214402FB000AF02460B46FA71BB71FA79BB791046F0
S214402FC019461D4B9847034683F00103DBB2002B9E
S214402FD001D000232BE0194B1B68FB60F8680521E5
S214402FE0174B9847F860FB68002B0BD100BF154B7A
S214402FF01B685A68FB799B0013441B681B689847FC
S214403000034614E0FB689978FB68DA78FB689B888F
S2144030109BB2084611461A460B4B9847034683F028
S2144030200103DBB2002B01D0002300E0D6E71846B0
S2144030301037BD4680BD00BF752E4000B406002048
S2144030401D2E4000B0060020414A400080B582B0A8
S21440305000AF0F4B1B78002B10D00023FB7106E00F
S214403060FB7918460B4B9847FB790133FB710A4BAB
S2144030701B681B681B79FA799A42F1D3044B0022ED
S2144030801A70064B01221A800837BD4680BD00BF25
S214403090AC0600200D2F4000B0060020A4060020FD
S2144030A080B582B000AF134B1B78002B1FD0002397
S2144030B0FB7115E0104B1B685A68FB799B00134464
S2144030C01B681B69002B08D00B4B1B685A68FB79A2
S2144030D09B0013441B681B699847FB790133FB71BF
S2144030E0054B1B681B681B79FA799A42E2D308376E
S2144030F0BD4680BDAC060020B006002080B500AFBF
S214403100064BDB88022B01D0002304E00448022152
S214403110044B98470123184680BD00BFB4270120C2
S214403120A4060020194A400080B500AF0B4BDB8850
S214403130022B01D000230EE0084B9B88DBB21846DA
S214403140074B984703461A46064B1A800548022105
S214403150054B98470123184680BD00BFB427012081
S214403160094C4000B8060020194A400080B400AF21
S2144031700C4BDB88002B01D000230DE0094B5B880D
S214403180012B08D1084B1B8823F002039AB2064B4A
S2144031901A80012300E000231846BD465DF8047BF4
S2144031A0704700BFB4270120A406002080B500AFBA
S2144031B00A4BDB88002B01D000230CE0074B5B88D2
S2144031C0002B07D1054B9B88DBB21846044B98472B
S2144031D0034600E00023184680BD00BFB427012008
S2144031E0714D400080B400AF094BDB88002B01D006
S2144031F0002307E0064B5B88012B02D000BF00236C
S21440320000E000231846BD465DF8047B704700BFCB
S214403210B427012080B500AF0D4BDB88002B01D0D2
S214403220002312E00A4B5B88002B0DD1084B9B888D
S214403230DBB21846074B9847054B9B88DBB21846CF
S214403240054B9847034600E00023184680BD00BF64
S214403250B4270120E14F40007D4C400080B500AFD0
S214403260044B5B88DBB203F07F03DBB21846024BAD
S214403270984780BDB42701208549400080B400AF00
S214403280074BDB88002B01D0002303E0044B054AA4
S2144032901A6101231846BD465DF8047B704700BF9F
S2144032A0B42701205D32400080B584B000AF0023D3
S2144032B0FB71284B5B88DBB2032B20D801A252F867
S2144032C023F000BFD5324000DF324000E9324000F4
S2144032D0F332400020480421204B984711E0092350
S2144032E0FB711F4BBB600CE00323FB711D4BBB60A7
S2144032F007E00C23FB711C4B9847B86001E00023A5
S21440330023E0FB79002B1FD00023FB730BE0FB7BF5
S214403310FA7BB9680A44127814495B000B445A8019
S214403320FB7B0133FB73FA7BFB799A42EFD3FB7945
S2144033300133DBB25B00DAB20C4B1A700B4B1B78D6
S2144033400A481946054B9847012318461037BD468C
S21440335080BD00BFB42701200C000020194A400061
S214403360100000201C000020E52D4000200000201A
S21440337080B582B000AF414B5B88FB713F4B5B88AA
S2144033801B0A9BB2DBB2013B0E2B66D801A252F859
S21440339023F000BFD1334000E533400045344000C1
S2144033A05B3440005B3440005B3440005B3440009C
S2144033B05B3440005B3440005B3440005B3440008C
S2144033C05B3440005B3440005B34400023344000B4
S2144033D02B4B1A682A4B1B681B7810461946294BFC
S2144033E098473CE0264B1B685B7CFA799A4201D3AF
S2144033F000233FE0224B5A68FB79DB0013441A68EF
S2144034001F4B5968FB79DB000B441B685B889BB2FB
S214403410104619461B4B9847184B9B6802225A7019
S2144034201DE0174B9B68002B01D1002322E0144B74
S2144034309A68134B9B685B889BB210461946114BA3
S21440344098470CE0104B9847034683F00103DBB2E5
S214403450002B01D000230DE001E000230AE0074BDB
S214403460DA88064B9B899A4203D2044BDA88034B90
S2144034709A81012318460837BD4680BDB4270120EF
S214403480C4000020194A4000A932400080B500AF71
S214403490064BDB88012B01D0002304E004480121C1
S2144034A0044B98470123184680BD00BFB42701202F
S2144034B0AC060020194A400080B582B000AF274BCA
S2144034C0DB88002B01D0002343E0254B984703467A
S2144034D0002B01D100233CE0204B5B88DAB2214B25
S2144034E01B685B7C9A4201DD002332E01E4B984706
S2144034F01A4B5B88DAB21D4B1A701C4B1B78002B9C
S21440350001D1012325E0174B5A68184B1B7803F16D
S2144035100053013BDB001A44154B1A600023FB7135
S2144035200FE0FB7918460021124B9847034683F07C
S2144035300103DBB2002B01D000230AE0FB79013304
S214403540FB710B4B1B681B681B79FA799A42E8D3D0
S214403550012318460837BD4680BD00BFB42701206A
S214403560E9494000C40000204D304000AC06002031
S214403570B0060020AD2F400080B582B000AF1E4B95
S214403580DB88012B01D0002332E01C4B1B78002B3C
S21440359001D100232CE0184B9B88FB71184B1B680D
S2144035A01B681B79FA799A4201D3002320E0FB7905
S2144035B018460021134B9847034683F00103DBB2BD
S2144035C0002B01D0002313E00D4B1B685A68FB7993
S2144035D09B0013441B683B603B68DB689847034688
S2144035E01A46094B1A7008480121084B9847012390
S2144035F018460837BD4680BDB4270120AC060020DB
S214403600B0060020752E4000A8060020194A40004B
S21440361080B582B000AF144BDB88002B01D000236E
S2144036201EE0124B1B78002B01D1002318E00E4BF6
S2144036309B88FB710C4B5B88BB71FB7918460C4B27
S2144036409847034683F00103DBB2002B01D00023EA
S21440365006E0FA79BB7910461946064B984703466A
S21440366018460837BD4680BDB4270120AC0600206A
S2144036700D2F4000AD2F400080B500AF4E4B1B785D
S214403680DBB25BB2002B3FDA4B4BDB88002B01D121
S21440369000238FE0484B1B7803F01F03002B14D108
S2144036A0454B5B78062B08D0082B0AD0002B00D061
S2144036B00BE0424B984703467CE0414B9847034615
S2144036C078E0404B9847034674E03B4B1B7803F04A
S2144036D01F03012B08D1384B5B780A2B00D003E040
S2144036E0394B9847034665E0334B1B7803F01F037E
S2144036F0022B5ED1304B5B78002B01D000BF58E0E8
S214403700324B9847034655E02B4B1B7803F01F037C
S214403710002B2AD1284B5B78013B082B24D801A2EA
S21440372052F823F05137400069374000593740007F
S21440373069374000493740006937400069374000E4
S2144037406937400061374000214B9847034631E0D7
S214403750204B984703462DE01F4B9847034629E0E9
S2144037601E4B9847034625E000BF134B1B7803F0DB
S2144037701F03012B08D1104B5B780B2B00D003E0C6
S214403780174B9847034615E00B4B1B7803F01F0377
S214403790022B0ED1084B5B78012B02D0032B04D0B2
S2144037A007E0104B9847034604E00F4B9847034604
S2144037B000E00023184680BDB4270120FD304000BD
S2144037C0713340008D344000793540002931400047
S2144037D07D3240006D314000E5314000B934400054
S2144037E011364000AD3140001532400080B582B001
S2144037F000AF204B1B78002B01D1002335E01E4B39
S2144038009B88FB711D4B1B681B681B79FA799A4293
S21440381001D3002329E0FB7918460021184B98472E
S214403820034683F00103DBB2002B01D000231CE0EB
S214403830124B1B685A68FB799B0013441B683B601D
S2144038403B68DB6898470346FA79104619460C4BA6
S2144038509847034683F00103DBB2002B01D00023D8
S21440386003E03B689B689847034618460837BD46C2
S21440387080BD00BFAC060020B4270120B006002063
S214403880752E400080B582B000AF1E4B1B78002BD3
S21440389001D1002331E01C4B9B88FB710023FB7158
S2144038A023E01A4B1B685A68FB799B0013441B683D
S2144038B03B603B68DB6898470346FA7910461946F2
S2144038C0134B9847034683F00103DBB2002B01D02D
S2144038D0002312E03B689B6898470346002B01D0C4
S2144038E001230AE0FB790133FB71084B1B681B6818
S2144038F01B79FA799A42D4D3002318460837BD4636
S21440390080BD00BFAC060020B4270120B0060020D2
S214403910752E400080B500AF1F4B00229A811E4B8B
S21440392000221A611C4B00225A611B4B1B78DBB2EB
S2144039305BB2002B05DA184BDB88002B01D1002345
S21440394027E0154B1B7803F06003002B06D1134B82
S21440395098470346002B01D001231AE00E4B1B78F4
S21440396003F01F03012B06D10D4B98470346002B4F
S21440397001D001230DE0084B1B7803F01F03022BF8
S21440398006D1084B98470346002B01D0012300E0A0
S2144039900023184680BD00BFB4270120793640007A
S2144039A0ED3740008538400080B582B000AF1F4BF1
S2144039B000221A701E4B00221A701E4B01221A70EB
S2144039C01D4B01221A701D4B984703461A461C4B46
S2144039D01A701B4B1B78002B01D1002322E0184B9A
S2144039E01B78013BDAB2164B1A70164B98470346C3
S2144039F083F00103DBB2002B01D0002312E000234A
S214403A00FB7107E0FB79184600210F4B9847FB797E
S214403A100133FB710A4B1B78FA799A42F2D90B4B69
S214403A209847012318460837BD4680BDF306002058
S214403A30F20600205D0000205E000020E105400008
S214403A40DC060020E575410069064000B93B4000B1
S214403A5080B500AF054B00221A70054B01221A7044
S214403A60044B01221A70044B984780BDF306002091
S214403A705D0000205E0000200176410080B500AF6A
S214403A80294B1B78DBB25BB2002B1DDA264B1B782A
S214403A9003F06003202B17D1234B5B78FE2B13D10A
S214403AA0214BDB88012B01D000233AE01E4B5B887C
S214403AB0002B01D0002334E01B4B1C4A9A601A4B63
S214403AC001229A8101232CE0174B1B78DBB25BB2B4
S214403AD0002B25DB144B1B7803F06003202B1FD1F3
S214403AE0114B5B78FF2B1BD10F4BDB88002B01D093
S214403AF0002316E00C4B5B88002B01D0002310E01F
S214403B000B4B00221A700B4B00221A7002200A4BF5
S214403B1098478120084B9847084B9847012300E078
S214403B200023184680BD00BFB4270120DC060020D5
S214403B30F2060020F3060020E14F4000B93B40006B
S214403B4080B400AF00231846BD465DF8047B70473E
S214403B5080B500AF074B1B7883F00103DBB2002B28
S214403B6000D006E00220044B984702200349044B4D
S214403B70984780BDF20600207D4C4000513B4000F7
S214403B80A151400080B500AF074B1B7883F001037E
S214403B90DBB2002B00D006E08120044B9847812002
S214403BA00349044B984780BDF20600207D4C4000F8
S214403BB0853B4000A151400090B583B002AF0A4B10
S214403BC0009302200121094A1F23094CA0470346BF
S214403BD083F00103DBB2002B03D002200549064BDD
S214403BE098470437BD4690BDFD3B4000BC060020CC
S214403BF0894E4000B93B4000A151400080B582B09C
S214403C0000AF396013460246FA71BB71FB79002B50
S214403C1000D00FE13B681F2B04D1884B1A68884BB5
S214403C209A4207D0874B01221A70874B9847874B9A
S214403C309847FFE0814B5B7B03F00F03DAB27F4B84
S214403C405A737E4B5A7B824B1B789A4204D9814BDF
S214403C509847814B9847EDE0784B9A687F4B9A603F
S214403C60764BDB7B5A2B00F2E08001A252F823F021
S214403C70F93D40002B3E40002B3E4000DD3D4000DD
S214403C802B3E40002B3E40002B3E40002B3E40004B
S214403C902B3E40002B3E40002B3E40002B3E40003B
S214403CA02B3E40002B3E40002B3E40002B3E40002B
S214403CB02B3E40002B3E4000E33D40002B3E400064
S214403CC02B3E40002B3E40002B3E40002B3E40000B
S214403CD02B3E40002B3E4000E93D4000053E400064
S214403CE02B3E40002B3E40000B3E40002B3E40000B
S214403CF02B3E40002B3E40002B3E40002B3E4000DB
S214403D002B3E4000FF3D40002B3E40002B3E4000F7
S214403D101B3E40002B3E4000233E40002B3E4000D2
S214403D202B3E40002B3E40002B3E4000113E4000C4
S214403D302B3E40002B3E40002B3E40002B3E40009A
S214403D402B3E40002B3E40002B3E40002B3E40008A
S214403D502B3E40002B3E40002B3E40002B3E40007A
S214403D602B3E40002B3E40002B3E40002B3E40006A
S214403D702B3E40002B3E40002B3E40002B3E40005A
S214403D802B3E40002B3E40002B3E40002B3E40004A
S214403D902B3E40002B3E40002B3E40002B3E40003A
S214403DA02B3E40002B3E40002B3E40002B3E40002A
S214403DB02B3E40002B3E40002B3E40002B3E40001A
S214403DC02B3E40002B3E40002B3E40002B3E40000A
S214403DD02B3E40002B3E4000F13D4000204B984794
S214403DE028E0204B984725E000201F4B984721E0CD
S214403DF001201D4B98471DE01C4B98471AE01C4B72
S214403E00984717E01B4B984714E01B4B984711E028
S214403E101A4B9847104B98470CE00120184B984790
S214403E2008E00020164B984704E0164B98470A4B8C
S214403E30984700BF0837BD4680BD00BFBC0600207F
S214403E4055534243F2060020513B4000853B40001C
S214403E50DC06002015414000613F40005000002035
S214403E604541400095414000FD424000D942400057
S214403E70BD4440004944400011444000A140400039
S214403E80554540002D41400080B582B000AF786077
S214403E900B46FB700C4B1A7BFB785340DBB2DBB215
S214403EA05BB2002B04DB094B9A687B689A4205D2CA
S214403EB0074B9847074B9847002300E001231846D6
S214403EC00837BD4680BD00BFBC060020500000201D
S214403ED015414000613F400090B585B002AF786024
S214403EE00B46FB70FB780A4A0092812001217A68D3
S214403EF0084CA047034683F00103DBB2002B03D0F7
S214403F00054B9847054B98470C37BD4690BD00BFBC
S214403F10213F4000894E4000E9404000613F40005C
S214403F2080B582B000AF396013460246FA71BB7165
S214403F30FB79002B00D009E0064B9847064B9A6861
S214403F403B68D21A044B9A60044B98470837BD46E4
S214403F5080BD00BFA140400050000020613F4000AF
S214403F6080B500AF0D4B9B68002B0CD00C4B1B7BD9
S214403F70DBB25BB2002B03DA81200A4B984702E0A3
S214403F800220084B9847064B5A68044B5A60034B2E
S214403F909A68024B9A60044B984780BD50000020B8
S214403FA0BC0600207D4C4000AD3F400090B583B03D
S214403FB002AF0A4B009381200021094A0D23094C89
S214403FC0A047034683F00103DBB2002B03D08120D9
S214403FD00549064B98470437BD4690BDF13F400023
S214403FE050000020894E4000AD3F4000A1514000A7
S214403FF080B582B000AF396013460246FA71BB7195
S214404000024B98470837BD4680BD00BFB93B4000CD
S21440401080B500AF054800211222054B9847034B58
S214404020F0221A70014B0A22DA7180BDE0060020A9
S2144040309576410080B582B000AF0B463A600246A6
S214404040FA71BB80134B9847134B01221A73134BDC
S214404050FA799A703B681B0EDAB2104BDA703B68FE
S2144040601B0CDAB20D4B1A713B681B0ADAB20B4BCB
S2144040705A713B68DAB2094B9A71BB881B0A9BB2ED
S214404080DAB2064B1A73BB88DAB2044B5A73083757
S214404090BD4680BD1140400050000020E006002094
S2144040A080B500AF024B9847024B00221A7380BD82
S2144040B0114040005000002080B500AF02204FF471
S2144040C068510022014B984780BD00BF35404000F4
S2144040D080B500AF06204FF420510022014B984790
S2144040E080BD00BF3540400080B500AF04200021B1
S2144040F00022014B984780BD3540400080B500AF58
S21440410007204FF41C510022014B984780BD00BF4A
S2144041103540400080B500AF05204FF410510022D6
S214404120014B984780BD00BF3540400080B500AF8A
S21440413005204FF400510022014B984780BD00BF38
S2144041403540400080B582B000AF0E4BDB7CFB7143
S214404150FB79122B01D91223FB71FB79184680217B
S214404160094B9847034683F00103DBB2002B00D08F
S21440417004E0FB7905481946054B98470837BD4685
S21440418080BD00BFBC060020893E4000E0060020FF
S214404190D93E400090B583B000AF344BDB7CFB711A
S2144041A0FB79242B01D92423FB71FB791846802107
S2144041B02F4B9847034683F00103DBB2002B00D019
S2144041C050E02A4B1B7C03F00303002B03D1274B04
S2144041D05B7C002B04D0274B9847274B984741E001
S2144041E0224B5B7B1846254B98470346002B01D055
S2144041F0802300E00023224A53701C4B5B7B18460A
S214404200204B9847034601331D4A02F110041868B4
S21440421059689A68DB680FC40023BB710EE0BB790F
S214404220174A13441B7C002B0BD0BB79144A13440B
S2144042301B7C222B05D0BB790133BB71BB79102B7D
S214404240EDD107E0BB790E4A134420221A74BB799D
S2144042500133BB71BB79102BF4D1FB790848194662
S214404260094B98470C37BD4690BD00BFBC060020A2
S214404270893E400015414000613F40002507400010
S2144042806000002065074000D93E400080B500AF82
S2144042900C4B5B7B18460C4B98470346022B08D0CA
S2144042A0032B03D0002B07D1012309E0074B984787
S2144042B005E0074B984702E0064B984700BF0023AF
S2144042C0184680BDBC060020F1054000D1404000A5
S2144042D0B9404000E940400080B500AF044B9847E5
S2144042E00346002B01D0034B9847034B984780BDAD
S2144042F08D424000A1404000613F400080B586B0FE
S21440430000AF0346FB713A4800211422394B9847C8
S214404310FB79002B07D0384BDB7DBB75374B3B61B9
S2144043200823FB7506E0344BDB7CBB75344B3B61A6
S2144043300423FB75304B5B7C03F03F03FB73FB7B36
S2144043401C2B02D0FB7B3F2B0BD13B691C221A70E7
S2144043503B690A225A703B690522DA70FB7D0C33B2
S214404360FB75BA7DFB7D9A4201D9FB7DBB75BB7D53
S21440437018468021234B9847034683F00103DBB25F
S214404380002B00D031E01C4B5B7B18461E4B9847F9
S2144043900346002B01D0802300E00023BB73FB794B
S2144043A0002B15D0FB7D9BB2023B9BB21B0A9BB2F7
S2144043B09AB2FB7D9BB2023B9BB21B029BB213435D
S2144043C09BB29AB20A4B1A80094BBA7BDA7007E066
S2144043D0FB7D013BDAB2064B1A70054BBA7B9A70EE
S2144043E0BB7D03481946094B98471837BD4680BDE4
S2144043F00007002095764100BC06002008070020F4
S21440440004070020893E4000E5064000D93E4000B3
S21440441080B582B000AF084BDB7CFB71FB79002B8C
S21440442002D1064B984701E0054B9847054B984705
S2144044300837BD4680BD00BFBC060020A1404000F6
S21440444015414000613F400080B582B000AF174B39
S214404450DB7C03F00103002B0CBF00230123FB7120
S214404460124BDB7C03F00203002B0CBF002301231E
S214404470BB71BB79002B11D00C4B5A7BFB79002BC0
S2144044800CBF00230123DBB283F00103DBB203F051
S2144044900103DBB210461946054B9847054B984733
S2144044A0054B98470837BD4680BD00BFBC06002078
S2144044B069064000A1404000613F400080B500AF23
S2144044C0082080211A4B9847034683F00103DBB24D
S2144044D0002B00D02AE0174B5B7B18461649174B3B
S2144044E098470346022B09D0032B02D0002B0FD04F
S2144044F009E0134B9847134B984717E0124B9847E1
S214404500104B984712E0114B98470E4B98470DE0DA
S21440451000BF094B4FF400325A60074B1B681ABA6B
S214404520054B1A6004480821094B984780BD00BFD8
S214404530893E4000BC0600201407002029064000A3
S214404540D1404000613F4000B9404000E940400053
S214404550D93E400080B584B000AF0346FB71FB797E
S21440456083F00103DBB2002B0CD0224B5B7B18465A
S214404570214B98470346002B04D0204B9847204BAE
S214404580984734E01F4B1B4A527C1A701E4B194A00
S214404590927C1A701D4B174AD27C1A701C4B154AD7
S2144045A0127D1A701B4B134A927D1A701A4B114A91
S2144045B0D27D1A70184B1B885B02FB60FB79002B80
S2144045C001D0802300E00023F8681946134B984733
S2144045D0034683F00103DBB2002B00D007E0104B0C
S2144045E0FA791A700F4B01221A700F4B9847103702
S2144045F0BD4680BDBC060020E5064000FD404000AC
S214404600613F4000FB060020FA060020F906002025
S214404610F8060020FD060020FC060020893E4000EB
S214404620F4060020F30600208575410080B483B070
S21440463000AF396013460246FA71BB71FB79002B16
S2144046400CBF00230123DAB2044B1A70044B01223C
S2144046501A700C37BD465DF8047B7047B0270120C2
S2144046605D00002090B587B002AFB9607A603B60CD
S2144046700346FB732E4B1B78DBB283F00103DBB2A1
S214404680002B01D000234FE0294B00221A70FB7B01
S214404690002B01D0812300E002233A68002A01D093
S2144046A03A6800E0234A009218460021BA687B68C0
S2144046B0214CA047034683F00103DBB2002B04D015
S2144046C01B4B01221A7000232EE03B68002B24D19E
S2144046D000BF174B1B78DBB283F00103DBB2002B25
S2144046E0F7D1164B1B78DBB2002B01D000231BE022
S2144046F0134B9A687B68D21A114B9A600F4B1B7803
S214404700DBB2002B0CBF00230123DBB283F0010396
S214404710DBB203F00103DBB206E0094B9A687B6824
S214404720D21A074B9A60012318461437BD4690BDEF
S2144047305D0000202D464000894E4000B0270120F5
S2144047405000002080B483B000AFEFF310833B608E
S2144047503B68002B14BF00230123DBB27B6072B69C
S214404760BFF35F8F044B00221A707B6818460C37E5
S214404770BD465DF8047B70470800002080B483B0D7
S21440478000AF78607B68002B0CBF00230123DBB2B0
S21440479018460C37BD465DF8047B704780B582B03E
S2144047A000AF78607868074B98470346002B05D0E3
S2144047B0054B01221A70BFF35F8F62B60837BD46BD
S2144047C080BD00BF7D4740000800002080B483B015
S2144047D000AF0346FB710C37BD465DF8047B70475F
S2144047E080B500AF2320594B9847594B9B6903F43B
S2144047F00063002B0ED0564BDB6903F40063002B9E
S21440480008D0534B4FF400621A62524B9847524BB3
S214404810984799E0514B98470346002B00D093E0C9
S2144048204F4B98470346002B00D08DE0484B9B6982
S21440483003F40053002B05D0454BDB6903F40053CB
S214404840002B17D1424B9B6903F40073002B05D015
S2144048503F4BDB6903F40073002B0BD13C4B9B6949
S21440486003F48063002B1FD0394BDB6903F480636D
S214404870002B19D0364B4FF418521A62344B4FF473
S21440488018525A610120374B9847374B9847304B60
S2144048904FF480721A622E4B4FF480721A612C4B82
S2144048A04FF400621A614FE0294B9B6903F4807312
S2144048B0002B22D0264BDB6903F48073002B1CD0E0
S2144048C0234B4FF480721A62214B4FF480725A6128
S2144048D01F4B4FF400521A611D4B4FF400721A6181
S2144048E01B4B4FF480621A612320204B98470020D0
S2144048F01C4B98471E4B984726E0154BDB6903F444
S2144049008053002B20D0124B4FF480521A62194B22
S2144049109847194B98470E4B0D4A526822F00102B1
S2144049205A600B4B0A4A526822F002025A60134BF6
S2144049309847134B9847064B4FF480721A61044BC6
S2144049404FF400621A6100BF00BF80BD3DAC40001E
S21440495000400840A1304000C1754100795A4000EF
S214404960B1604000CD474000B5754100ADAB40005A
S214404970A9754100255B40004D3040004152400043
S214404980F152400080B483B000AF0346FB71154B34
S214404990144A526822F001025A60124B114A926839
S2144049A022F480729A60FB79002B15D00D4B0D4A8D
S2144049B0926822F07F01FA7902F07F020A439A60F9
S2144049C0084B084A926842F480729A60054B054A42
S2144049D0526842F001025A600C37BD465DF8047BCF
S2144049E0704700BF0040084080B400AF094B5B688A
S2144049F003F00103002B06D0064B9B68DBB203F0A6
S214404A007F03DBB200E000231846BD465DF8047B1A
S214404A10704700BF0040084080B483B000AF786065
S214404A200B467B80054B7A689A60044B7A889A815D
S214404A300C37BD465DF8047B704700BFB4270120A5
S214404A4080B487B000AF13460246FA710A46BA7180
S214404A50BB80FB7903F08003002B0CBF00230123AF
S214404A60FB75BB7903F00303012B14BF002301231E
S214404A70BB75FB7903F00F03FB71FB79022B01D961
S214404A80002392E04C4BFA790C3253F8223003F470
S214404A900043002B01D0002387E0BB7D002B07D0CE
S214404AA0FB79002B02D0FB79032B01D100237CE05D
S214404AB0BA88FB79042B02D0FB79052B02D14FF440
S214404AC0007300E040239A4201DD00236DE0FB794D
S214404AD05A1E13469B0013449B00384A13443B61BE
S214404AE0BB88C3F3090399B23A69138A61F3090391
S214404AF013823A69537C6FF3C71353743A69537CF5
S214404B006FF345135374FB7D002B04D03A69537CF6
S214404B106FF383035374284B274A916AFA7901202E
S214404B2000FA02F20A439A62234B234A916AFA79C0
S214404B30012000FA02F2D2430A409A621E4BFA79EA
S214404B400C3253F82230FB60FB6843F04F03FB60A7
S214404B50FB6823F4074323F08003FB60FB7D002BB8
S214404B6009D0BB7943F00403DBB21B0203F4E063D5
S214404B7043F4004305E0BB791B0203F4E06343F4CF
S214404B800043FA681343FB600B4BFA79F9680C3222
S214404B9043F822100023BB6003E000BFBB6801332C
S214404BA0BB60BB68132BF8D9012318461C37BD469B
S214404BB05DF8047B704700BF00400840280700208F
S214404BC080B584B000AF0346FB71FB7903F00F035A
S214404BD0FB73FB7B022B00D90FE0094BFA7B08499D
S214404BE0F87B0C3051F8201021F400410C3243F889
S214404BF02210FB791846034B98471037BD4680BDB8
S214404C0000400840695B400080B485B000AF034672
S214404C10FB71FB7903F00F03FB73FB7B5A1E1346B5
S214404C209B0013449B00134A1344BB60FB7B022B40
S214404C3001D9002317E0BB685B7CC3F34013DBB2AB
S214404C40002B0AD10C4BFA7902F00F020C3253F8C3
S214404C50223003F02803002B01D0012300E000237C
S214404C6003F00103DBB218461437BD465DF8047BFB
S214404C70704700BF280700200040084080B588B035
S214404C8000AF0346FB71FB7903F08003002B0CBF9B
S214404C9000230123FB77FB7903F00F03BB77BB7F31
S214404CA05A1E13469B0013449B002D4A1344BB6177
S214404CB0BB7F022B01D900234DE02A4B98477861F1
S214404CC0FB7F002B1FD0284BBA7F0C3253F8223084
S214404CD003F01003002B06D1BB695B7CC3F3810352
S214404CE0DBB2012B0FDDBA69537C43F020035374CB
S214404CF01D4BBA7F012101FA02F21A6178691B4BFB
S214404D009847012327E0184BBA7F0C3253F82230DD
S214404D103B613B6943F04F033B613B6943F02003F3
S214404D203B61114BBA7F39690C3243F8221000239D
S214404D30FB6003E000BFFB680133FB60FB68132B9E
S214404D40F8D9094BBA7F012101FA02F21A61786953
S214404D50064B9847012318462037BD4680BD00BF06
S214404D602807002045474000004008409D47400037
S214404D7080B588B000AF0346FB71FB7903F00F03A4
S214404D80FB71FB79022B01D9002375E0FB795A1E93
S214404D9013469B0013449B00394A1344FB61FA694F
S214404DA0537C6FF345135374364BFA790C3253F8F1
S214404DB0223003F02003002B5DD0324BFA790C32C0
S214404DC053F82230BB61BB6943F04F03BB61BB69FC
S214404DD023F02003BB612B4BFA79B9690C3243F8B8
S214404DE0221000237B6103E000BF7B6901337B61B7
S214404DF07B69132BF8D9234B224A916AFA79012012
S214404E0000FA02F20A439A621E4B1E4A916AFA79E7
S214404E10012000FA02F2D2430A409A62194BFA790C
S214404E200C3253F822303B613B6943F04F033B6101
S214404E303B6923F008033B61124BFA7939690C321F
S214404E4043F822100023FB6003E000BFFB680133F9
S214404E50FB60FB68132BF8D9FB695B7CC3F300133C
S214404E60DBB2012B07D1FA69537C6FF304135374FA
S214404E70FB691B689847012318462037BD4680BD0E
S214404E80280700200040084080B588B000AFBA60D0
S214404E907B600346FB730B46BB73FB7B03F08003D0
S214404EA0002B0CBF00230123FB77FB7B03F00F0393
S214404EB0FB73FB7B022B01D9002383E0FB7B5A1E4E
S214404EC013469B0013449B00404A1344BB61404B2F
S214404ED0FA7B0C3253F8223003F40043002B0FD0F9
S214404EE0BB695B7CC3F34013DBB2002B08D1384B65
S214404EF0FA7B0C3253F8223003F02003002B01D00B
S214404F0000235FE0334B98477861BB695B7CC3F313
S214404F100013DBB2012B04D178692F4B984700234E
S214404F2050E0BA69537C43F01003537478692A4BB7
S214404F309847BB69BA685A60BB697A689A60BB6929
S214404F400022DA60BB69BA6A1A60BB7B002B02D1CA
S214404F507B68002B01D1012300E00023DBB203F085
S214404F600103D9B2BA69537C61F386135374BA69A4
S214404F70537C6FF3C7135374164B98477861144BA2
S214404F80FA7B012101FA02F21A61FB7F002B15D051
S214404F900F4BFA7B0C3253F8223003F01103002BF0
S214404FA00CD1FB7B184601210C4B98470346002B3F
S214404FB004D0FB7B18460021084B98477869064B7F
S214404FC09847012318462037BD4680BD2807002055
S214404FD000400840454740009D4740009D5E4000D9
S214404FE080B588B000AF0346FB71FB7903F08003C1
S214404FF0002B0CBF00230123FB77FB7903F00F0344
S214405000FB71FB79022B00D9BAE05F4B9847B86139
S2144050105E4BFA79012101FA02F25A61B8695C4B9B
S2144050209847FB7F002B00F08680584BFA790C326D
S21440503053F8223003F01003002B4FD0FB79002B9F
S2144050402ED0FB79032B2BD0504BFA794F49F87969
S2144050500C3051F8201021F010010C3243F8221089
S21440506000BF4A4BFA790C3253F8223003F0100353
S214405070002BF6D1454BFA794449F8790C3051F873
S214405080201041F010010C3243F8221000BF3F4B75
S214405090FA790C3253F8223003F01003002BF6D086
S2144050A03A4BFA790C3253F822307B617B6943F0F5
S2144050B04F037B617B6923F010037B61334BFA79A6
S2144050C079690C3243F8221000233B6103E000BFAD
S2144050D03B6901333B613B69132BF8D92B4BFA797B
S2144050E00C3253F82230FB60FB6843F04F03FB6002
S2144050F0FB6823F00103FB60244BFA79F9680C3215
S21440510043F822100023BB6003E000BFBB680133B6
S214405110BB60BB68132BF8D9FB795A1E1D49134652
S2144051209B0013449B000B4403F1100253786FF32B
S214405130830353700DE003E0FB791846164B9847FF
S214405140124BFA790C3253F8223003F04203002B0C
S214405150F2D10E4B0D4A916AFA79012000FA02F21A
S2144051600A439A62094B094A916AFA79012000FA81
S21440517002F2D2430A409A62FB791846074B984798
S2144051802037BD4680BD00BF454740000040084030
S2144051909D47400028070020155C4000695B4000A2
S2144051A080B584B000AF03463960FB71FB7903F0ED
S2144051B00F03FB71FB79022B01D9002338E0FB7902
S2144051C05A1E13469B0013449B001B4A1344FB6025
S2144051D01A4BFA790C3253F8223003F40043002B72
S2144051E001D1002324E0FB685B7CC3F30013DBB2F1
S2144051F0012B01D100231BE0104BFA790C3253F8F7
S214405200223003F02003002B06D1FB685B7CC3F3FF
S2144052104013DBB2002B08D0FA68537C43F01003EF
S2144052205374FB683A681A6001E03B68984701236C
S21440523018461037BD4680BD28070020004008406D
S21440524080B586B000AF274B264A926842F48072FB
S2144052509A60244B234A926822F07F029A60214B40
S2144052601B6B3B613B6943F04F033B613B6923F457
S214405270074323F080033B613B6943F400433B61B3
S214405280184B3A691A630023FB6003E000BFFB68D3
S2144052900133FB60FB68132BF8D9124B1B6BBB60CA
S2144052A0BB6843F04F03BB60BB6843F40043BB603E
S2144052B00C4BBA681A6300237B6003E000BF7B6830
S2144052C001337B607B68132BF8D9074B984778618E
S2144052D0044B01221A617869044B98471837BD463B
S2144052E080BD00BF00400840454740009D47400005
S2144052F080B400AF074B00221A61064B00225A6169
S214405300044B00229A81044B00221A70BD465DF879
S214405310047B7047B42701202107002080B58CB05D
S21440532000AF6D4B1B78002B03D06C4B98476C4BF3
S21440533098476C4B1A6B6C4B13401B0C082B1AD0BF
S214405340684B1B6BBB62BB6A43F04F03BB62BB6AD6
S21440535023F00403BB62634BBA6A1A6300237B6282
S21440536003E000BF7B6A01337B627B6A132BF8D96C
S2144053705E4B9847ADE0002387F82F300CE097F857
S2144053802F205B4B1344574A126DD2B21A7097F8CF
S2144053902F30013387F82F3097F82F30072BEED970
S2144053A0534B5A88524B5A80514B9A88504B9A804E
S2144053B04F4BDA884E4BDA804E4B9847034683F085
S2144053C00103DBB2002B1AD0464B1B6B3B623B6A99
S2144053D043F04F033B623B6A23F004033B62414B7E
S2144053E03A6A1A630023FB6103E000BFFB6901339E
S2144053F0FB61FB69132BF8D93C4B984769E03C4B63
S2144054001B78DBB25BB2002B3BDA364B1B6BBB61C7
S214405410BB6943F04F03BB61BB6943F08003BB618C
S214405420304BBA691A6300237B6103E000BF7B6997
S21440543001337B617B69132BF8D92A4B1B6B3B618D
S2144054403B6943F04F033B613B6923F004033B61F8
S214405450244B3A691A630023FB6003E000BFFB68F5
S2144054600133FB60FB68132BF8D9234B00221A80CC
S214405470224B00221A80184B02221A70204B984763
S21440548027E0184B1B6BBB60BB6843F04F03BB6009
S214405490BB6823F00403BB60124BBA681A63002350
S2144054A07B6003E000BF7B6801337B607B68132B27
S2144054B0F8D90F4BDB88002B02D1124B984708E0F7
S2144054C00D4B00221A800D4B00221A80024B0122FF
S2144054D01A703037BD4680BD21070020615A400013
S2144054E0F1524000004008400000FF07A959400024
S2144054F0B427012015394000220700202407002049
S21440550009554000F959400080B58EB000AF7B4B3E
S2144055101B78032B1CD17A4B1B6BBB62BB6A43F0D8
S2144055204F03BB62BB6A23F00103BB62744BBA6A8B
S2144055301A6300237B6203E000BF7B6A01337B6211
S2144055407B6A132BF8D96F4B98476F4B9847D1E03F
S2144055506E4B9A896E4B1B88D31AFB86FB8E002BAC
S2144055603FD16C4B1A886A4B1B8813449AB2694BDE
S2144055701A80664BDA88674B1B889A4203D0664B84
S2144055801B78002B1AD0654B98475D4B1B6B3B62D4
S2144055903B6A43F04F033B623B6A23F001033B62A6
S2144055A0574B3A6A1A630023FB6103E000BFFB696E
S2144055B00133FB61FB69132BF8D99BE0534B5B69C6
S2144055C0002B0ED0514B5B699847034683F001038E
S2144055D0DBB2002B05D14E4B00221A804B4B9B89E9
S2144055E0FB86FB8E3F2B05D94023FB864A4B002289
S2144055F01A7002E0484B01221A70444B9A68444B9A
S2144056001B8813443B63464B9847F8623C4B1B6BE6
S21440561003F00203002B1ED0F86A424B9847374BE4
S21440562004221A70364B1B6BBB61BB6943F04F03B9
S214405630BB61BB6923F00103BB61314BBA691A6396
S21440564000237B6103E000BF7B6901337B617B699C
S214405650132BF8D94EE0002387F835300AE0284A65
S2144056603B6B591C39631B78136597F8353001330B
S21440567087F8353097F835309BB2FA8E9A42EED896
S214405680234B1A88FB8E13449AB2214B1A801C4B2C
S2144056901B6B3B613B6943F04F033B613B6943F007
S2144056A010033B61164B3A691A630023FB6003E024
S2144056B000BFFB680133FB60FB68132BF8D9104B27
S2144056C01B6BBB60BB6843F04F03BB60BB6823F0FB
S2144056D00103BB600A4BBA681A6300237B6003E091
S2144056E000BF7B6801337B607B68132BF8D9F86A70
S2144056F00C4B98473837BD4680BD00BF2107002079
S21440570000400840615A4000F1524000B427012052
S214405710240700202207002050070020495A400056
S214405720454740009D47400080B58EB000AF8F4B48
S2144057301B78012B27D08D4B1B78022B03D08B4B2D
S2144057401B78042B02D18A4B984701E0894B984737
S214405750894B1B6BFB62FB6A43F04F03FB62FB6AA1
S21440576023F00203FB62844BFA6A1A630023BB628F
S21440577003E000BFBB6A0133BB62BB6A132BF8D998
S2144057807E4B98470DE17C4B1A6B7D4B13401B0CB0
S214405790BB867C4B9B891A467B4B1B881946BB8E27
S2144057A00B449A4205DA774B9A89774B1B88D31A73
S2144057B0BB86744B9A68744B1B8813443B63002328
S2144057C087F837300BE03B6B5A1C3A636A4A126DD7
S2144057D0D2B21A7097F83730013387F8373097F8D7
S2144057E037309BB2BA8E9A42EDD8674B1A88BB8E3A
S2144057F013449AB2644B1A80BB8E402B0AD1614B3D
S214405800DB881A46614B1B8819465F4B1B880B4446
S2144058109A4246DC5C4B1A885A4B9A81594B5B69D4
S214405820002B23D0574B5B699847034683F0010310
S214405830DBB2002B1AD04F4B98474F4B1B6B7B620B
S2144058407B6A43F04F037B627B6A23F002037B62F2
S214405850494B7A6A1A6300233B6203E000BF3B6A07
S21440586001333B623B6A132BF8D99AE0424B1B6BE1
S214405870FB61FB6943F04F03FB61FB6923F00203C6
S214405880FB613D4BFA691A630023BB6103E000BF2E
S214405890BB690133BB61BB69132BF8D93C4B9847B6
S2144058A07FE0384B9A89384B1B889A424DD1354B0E
S2144058B05B69002B1AD12F4B98472F4B1B6B7B6194
S2144058C07B6943F04F037B617B6923F002037B6176
